:020000040000fa
:080000000002040000000000f2
:020000040000fa
:1000080090020000900200009002000090020000a0
:100018009002000090020000900200009002000090
:100028009002000090020000900200009002000080
:100038009002000090020000900200009002000070
:100048009002000090020000900200009002000060
:10005800900200006e030000900200009002000071
:100068009002000090020000900200009002000040
:100078009002000090020000900200009002000030
:100088009002000090020000900200009002000020
:100098009002000090020000900200009002000010
:1000a8009002000090020000900200009002000000
:1000b80090020000900200009002000090020000f0
:1000c80090020000900200009002000090020000e0
:1000d80090020000900200009002000090020000d0
:1000e80090020000900200009002000090020000c0
:1000f80090020000900200009002000090020000b0
:10010800900200009002000090020000900200009f
:10011800900200009002000090020000900200008f
:10012800900200009002000090020000900200007f
:10013800900200009002000090020000900200006f
:10014800900200009002000090020000900200005f
:10015800900200009002000090020000900200004f
:10016800900200009002000090020000900200003f
:10017800900200009002000090020000900200002f
:10018800900200009002000090020000900200001f
:10019800900200009002000090020000900200000f
:1001a80090020000900200009002000090020000ff
:1001b80090020000900200009002000090020000ef
:1001c80090020000900200009002000090020000df
:1001d80090020000900200009002000090020000cf
:1001e80090020000900200009002000090020000bf
:0801f8009002000090020000db
:020000040000fa
:10020800900200009002000090020000900200009e
:10021800900200009002000090020000900200008e
:10022800900200009002000090020000900200007e
:10023800900200009002000090020000900200006e
:10024800900200009002000090020000900200005e
:10025800900200006e03000090020000900200006f
:10026800900200009002000090020000900200003e
:10027800900200009002000090020000900200002e
:10028800900200009002000090020000900200001e
:10029800900200009002000090020000900200000e
:1002a80090020000900200009002000090020000fe
:1002b80090020000900200009002000090020000ee
:1002c80090020000900200009002000090020000de
:1002d80090020000900200009002000090020000ce
:1002e80090020000900200009002000090020000be
:1002f80090020000900200009002000090020000ae
:10030800900200009002000090020000900200009d
:10031800900200009002000090020000900200008d
:10032800900200009002000090020000900200007d
:10033800900200009002000090020000900200006d
:10034800900200009002000090020000900200005d
:10035800900200009002000090020000900200004d
:10036800900200009002000090020000900200003d
:10037800900200009002000090020000900200002d
:10038800900200009002000090020000900200001d
:10039800900200009002000090020000900200000d
:1003a80090020000900200009002000090020000fd
:1003b80090020000900200009002000090020000ed
:1003c80090020000900200009002000090020000dd
:1003d80090020000900200009002000090020000cd
:1003e80090020000900200009002000090020000bd
:0803f8009002000090020000d9
:020000040000fa
:100400002f8020000e7f22000e01880000000000d7
:100410000c000700c03e2000010020001100070072
:10042000000020000000e000020032000000020096
:1004300000000000ba020200000000000040da00e4
:100440000000fe004440a900000020000000e00081
:100450000300320000002000a00188004440a800f2
:100460000000060091018800800078000000eb0089
:1004700015003700e280400032a0b4009101ba00bc
:10048000e280400032a0b4009102ba00e280400055
:1004900032a0b4000002eb00472bde00f507b200eb
:1004a000602ce10004003a000059eb008301e900f0
:1004b000fdff3e00040037006128e100010032002a
:1004c0000082eb00040007001101ba000200e00006
:1004d000e8ff3a00000006003159ba008301e90044
:1004e0000c0032002159ba008301e90008003200f3
:1004f0000400e00003003a00e280400032a0b400b3
:10050000f5ff370011d9ba008301e900faff3a007c
:100510008100e800e180400032a0b4000000060045
:080520000040da000000fe00bb
:020000040000fa
:100528000400fa00f0ff2f0001002000008fbe0039
:10053800000000001e0090001e0070008000ea000d
:10054800008070004f00de00004078000081eb0062
:100558008081eb001e0f41005e974900e04f50007c
:10056800f4ff3a000080fa00000006000e00fa00ce
:1005780050079800610798000000eb0000168800fb
:100588000080eb00601988005d0007007800070014
:1005980000408000e00f50001c0032002043a900fa
:1005a800111980000008200000806000e00f500052
:1005b8000b00320000188000000f7800101880002f
:1005c8001007980020188000200798003018800035
:1005d8003007980040188000400798000a0037004c
:1005e80080188000000f780090188000100798008d
:1005f800a018800020079800b018800030079800e5
:10060800c0188000400798002043a800200320005d
:100618009e007800808f50000200340010002000f7
:1006280020168800400620009e007800808f500029
:10063800020034003000200020168800800c2000c2
:100648009e007800808f5000020034007000200067
:1006580020168800c01220009e007800808f50006d
:1006680002003400f0002000201688000019200045
:100678009e007800808f500002003400f0012000b6
:1006880020168800401f20009e007800808f5000b0
:1006980002003400f0032000201688008025200086
:1006a8009e007800808f500002003400f007200080
:1006b80020168800c02b20009e007800808f5000f4
:1006c80002003400f00f20002016880094ff070075
:1006d800afff3700801f78003400f80000002000ca
:1006e800a00188000000fa001000200000408800e7
:1006f8000080fa003400f9004f007800004006003e
:100708000000fa00c023200060198800400e28006d
:10071800001988000041260010198800f0ff210008
:1007280020198800c0232000801988000000eb00f1
:10073800401988000080fa00000006000600fa0050
:100748004047980000000000001980006100600028
:10075800e00f5000fcff320000188000010020006c
:10076800008fbe001e00be000080fa0000000600d8
:100778000000fa00f00f200060088800000e20003a
:10078800600c88000000eb00700c8800000e200050
:10079800900c88000000eb00a00c8800600022008c
:1007a800800c880060002200b00c8800810880005e
:1007b8000003280000807000800888000080fa008c
:1007c800000006000000fa000080fa0000000600a1
:020000040000fa
:1007d8000008000002000000020000000000000005
:0407e800000000000d
:020000040000fa
:020000040002f8
:04aff800bdfa00009e
:020000040000fa
:020000040002f8
:04affc007f3f000093
:00000001FF
