:020000040000fa
:080000000002040000000000f2
:020000040000fa
:1000080090020000900200009002000090020000a0
:100018009002000090020000900200009002000090
:100028009002000090020000900200009002000080
:100038009002000090020000900200009002000070
:1000480012040000900200009002000090020000dc
:1000580090020000b003000090020000900200002f
:100068009002000090020000900200009002000040
:100078009002000090020000900200009002000030
:100088009002000090020000900200009002000020
:100098009002000090020000c8030000fa0300006c
:1000a8009002000090020000900200009002000000
:1000b80090020000900200009002000090020000f0
:1000c80090020000900200009002000090020000e0
:1000d80090020000900200009002000090020000d0
:1000e80090020000900200009002000090020000c0
:1000f80090020000900200009002000090020000b0
:10010800900200009002000090020000900200009f
:10011800900200009002000090020000900200008f
:10012800900200009002000090020000900200007f
:10013800900200009002000090020000900200006f
:10014800900200009002000090020000900200005f
:10015800900200009002000090020000900200004f
:10016800900200009002000090020000900200003f
:10017800900200009002000090020000900200002f
:10018800900200009002000090020000900200001f
:10019800900200009002000090020000900200000f
:1001a80090020000900200009002000090020000ff
:1001b80090020000900200009002000090020000ef
:1001c80090020000900200009002000090020000df
:1001d80090020000900200009002000090020000cf
:1001e80090020000900200009002000090020000bf
:0801f8009002000090020000db
:020000040000fa
:10020800900200009002000090020000900200009e
:10021800900200009002000090020000900200008e
:10022800900200009002000090020000900200007e
:10023800900200009002000090020000900200006e
:1002480012040000900200009002000090020000da
:1002580090020000b003000090020000900200002d
:10026800900200009002000090020000900200003e
:10027800900200009002000090020000900200002e
:10028800900200009002000090020000900200001e
:100298009002000090020000c8030000fa0300006a
:1002a80090020000900200009002000090020000fe
:1002b80090020000900200009002000090020000ee
:1002c80090020000900200009002000090020000de
:1002d80090020000900200009002000090020000ce
:1002e80090020000900200009002000090020000be
:1002f80090020000900200009002000090020000ae
:10030800900200009002000090020000900200009d
:10031800900200009002000090020000900200008d
:10032800900200009002000090020000900200007d
:10033800900200009002000090020000900200006d
:10034800900200009002000090020000900200005d
:10035800900200009002000090020000900200004d
:10036800900200009002000090020000900200003d
:10037800900200009002000090020000900200002d
:10038800900200009002000090020000900200001d
:10039800900200009002000090020000900200000d
:1003a80090020000900200009002000090020000fd
:1003b80090020000900200009002000090020000ed
:1003c80090020000900200009002000090020000dd
:1003d80090020000900200009002000090020000cd
:1003e80090020000900200009002000090020000bd
:0803f8009002000090020000d9
:020000040000fa
:100400006f8420000e7f22000e0188000000000093
:100410000c000700405220000100200011000700de
:10042000000020000000e000020032000000020096
:1004300000000000c6020200000000000040da00d8
:100440000000fe004440a900c00020000000e000c1
:100450000300320000002000a00188004440a800f2
:100460000000060091018800800078000000eb0089
:1004700015003700e280400032a0b4009101ba00bc
:10048000e280400032a0b4009102ba00e280400055
:1004900032a0b4000002eb00472bde00f507b200eb
:1004a000602ce10004003a000059eb008301e900f0
:1004b000fdff3e00040037006128e100010032002a
:1004c0000082eb00040007001101ba000200e00006
:1004d000e8ff3a00000006003159ba008301e90044
:1004e0000c0032002159ba008301e90008003200f3
:1004f0000400e00003003a00e280400032a0b400b3
:10050000f5ff370011d9ba008301e900faff3a007c
:100510008100e800e180400032a0b4000000060045
:080520000040da000000fe00bb
:020000040000fa
:10052800486500006c6c00006f2000004e650000fc
:08053800696c000000000000e6
:020000040000fa
:100540000400fa00f0ff2f0001002000008fbe0021
:10055000000000001e0090001e0070008000ea00f5
:10056000008070004f00de00004078000081eb004a
:100570008081eb001e0f41005e974900e04f500064
:10058000f4ff3a000080fa00000006000600fa00be
:10059000100798002107980040292800000f7800d4
:1005a0000000eb0000168800f10007000c010700b6
:1005b0001e010700a70007000000eb005040880064
:1005c0009500a80097c0a80087c0a90097e0a800e0
:1005d00095a0a80001003700000000003342a800e9
:1005e000f0418000e10f500013003a00100020009d
:1005f000201688002043a9000018800000408800d1
:1006000010188000104088002018800020408800ca
:10061000301880003040880040188000404088003a
:100620002043a8000000eb00f0418800304080002b
:100630004280de00600c880010428000e10f500014
:1006400004003a001e007800ab0007000000eb0039
:100650001042880000428000e10f50000f003a0075
:1006600050408000e00f50000c00320050408000ed
:100670000000e90050408800504080008080e80081
:10068000a080200000804000104078000000fb00a7
:10069000a01188000000eb0000428800314080007b
:1006a00020032000808f5000020034001000200042
:1006b000201688003140800040062000808f5000c6
:1006c00002003400300020002016880031408000f5
:1006d000800c2000808f5000020034007000200049
:1006e0002016880031408000c0122000808f50000a
:1006f00002003400f0002000201688003140800005
:1007000000192000808f500002003400f00120000a
:100710002016880031408000401f2000808f50004c
:1007200002003400f00320002016880031408000d1
:1007300080252000808f500002003400f007200048
:100740002016880031408000803e2000808f5000bd
:10075000a1ff3400f00f2000201688009fff370013
:10076000801f78003400f80000002000a0018800fd
:100770000000fa0085a0a90010002000f0418800c8
:100780000080fa003400f9004f00780000400600b5
:10079000801f78003400f80000002000a0018800cd
:1007a0000200fa0087c0a900901180006800600074
:1007b000e00f500008003a009011800064006000d3
:1007c000e00f500006003a00b0118000004f7800a2
:1007d00000000000030037000000000001003700a7
:1007e000000000000080fa003400f9004f0078009b
:1007f00000400600801f78003400f8000000200050
:10080000a00188000000fa0087e0a9001000200085
:10081000004288000080fa003400f9004f007800a0
:1008200000400600801f78003400f800000020001f
:10083000a00188000000fa008500a9001000200037
:10084000104288000080fa003400f9004f00780060
:10085000004006000000fa00c0002000c01188001f
:100860002000280080118800004028009011880096
:100870000080fa00000006000400fa00000f780073
:10088000110798009e0090000040eb00804878001f
:10089000130037001e0090000000e90010079800c8
:1008a0009e007800a00020000001780011000900df
:1008b0008200d8008000fd00004078000043b000b6
:1008c0009e009000804878009e007800a0002000e4
:1008d00000017800110009008200d800000f7800a4
:1008e0001e007800e00f5000eaff3a001e00900062
:1008f0000080fa00000006000600fa0020079800b9
:1009000050408000000fe8000000eb001007980046
:100910000f003700100320009e007800808f5000e9
:10092000fcff3c001e009000ae00900000804000e4
:1009300010407800c18020009e80400080487800f0
:100940001e0090000000e800100798001e0fe8004d
:100950001e009000ae009000008040001040780023
:10096000e04f5000ebff3a000080fa000000060064
:100970000000fa0030dc2f00601988000000eb0056
:1009800040198800600e28000019880040412000ae
:1009900010198800f0ff210020198800c0232000d2
:1009a000801988000080fa00000006000600fa00a6
:1009b00040479800000000000019800061006000be
:1009c000e00f5000fcff3200001880000100200002
:1009d000008fbe001e00be000080fa00000006006e
:1009e0000000fa00f00f2000600888000000eb0013
:1009f000600c88000000eb00700c88000000eb0029
:100a0000900c88000000eb00a00c88006000220021
:100a1000800c880060002200b00c880000032800d1
:100a2000800888000080fa00000006000000fa003c
:100a3000d0b82500700888000003280090088800be
:080a40000080fa00000006002e
:020000040000fa
:100a48003e0800000800000002000000000001004d
:100a58000000000000000000000800003e00000048
:080a6800000000000000000086
:020000040000fa
:020000040002f8
:04aff800bdfa00009e
:020000040000fa
:020000040002f8
:04affc007f3f000093
:00000001FF
