:020000040000fa
:080000000002040000000000f2
:020000040000fa
:100400000f8020000e7f22000e01880000000000f7
:100410000c000700603f20000100200011000700d1
:10042000000020000000e000020032000000020096
:10043000000000006c030200000000000040da0031
:100440000000fe004440a900000020000000e00081
:100450000300320000002000a00188004440a800f2
:100460000000060091018800800078000000eb0089
:1004700015003700e280400032a0b4009101ba00bc
:10048000e280400032a0b4009102ba00e280400055
:1004900032a0b4000002eb00472bde00f507b200eb
:1004a000602ce10004003a000059eb008301e900f0
:1004b000fdff3e00040037006128e100010032002a
:1004c0000082eb00040007001101ba000200e00006
:1004d000e8ff3a00000006003159ba008301e90044
:1004e0000c0032002159ba008301e90008003200f3
:1004f0000400e00003003a00e280400032a0b400b3
:10050000f5ff370011d9ba008301e900faff3a007c
:100510008100e800e180400032a0b4000000060045
:080520000040da000000fe00bb
:020000040000fa
:020000040002f8
:04aff800bdfa00009e
:020000040000fa
:020000040002f8
:04affc007f3f000093
:020000040000fa
:1000080090020000900200009002000090020000a0
:100018009002000090020000900200009002000090
:100028009002000090020000900200009002000080
:100038009002000090020000900200009002000070
:020000040000fa
:020000040000fa
:100528000000fa00400e2800001988000000eb00c7
:100538001019880050f0210020198800c602a80070
:10054800e0ff2f00601988000080fa000000060014
:100558000600fa004047980020c3bf0061406000d1
:100568000004e000fcff32000018800001002000b9
:10057800008fbe001e00be000080fa0000000600ca
:100588000a00fa0030079800410798000000eb00c5
:10059800001688000080eb0060198800e0ff070063
:1005a80010c0b300eaff0700008fbe002003200040
:1005b80001002000be0f1000ae8f180002003400aa
:1005c80010002000201688004006200001002000ae
:1005d800be0f1000ae8f180002003400300020005b
:1005e80020168800800c200001002000be0f10009b
:1005f800ae8f18000200340070002000201688001a
:10060800c012200001002000be0f1000ae8f18009d
:1006180002003400f0002000201688000019200095
:1006280001002000be0f1000ae8f18000200340039
:10063800f001200020168800401f20000100200043
:10064800be0f1000ae8f180002003400f003200027
:10065800201688008025200001002000be0f100011
:10066800ae8f180002003400f00720002016880022
:10067800c02b200001002000be0f1000ae8f180014
:1006880002003400f00f2000201688000100070047
:10069800c3ff37000400fa00f0ff2f00010020001c
:1006a800008fbe000080eb008080eb001e0f400032
:1006b8005e9748000080eb008080eb00be0f1000c2
:1006c800ae8f1800f7ff3a000080fa00000006001d
:1006d8000a00fa0030079800410798000000eb0074
:1006e800001688000080eb00601988008cff070066
:1006f80010c0b30096ff0700008fbe002003200043
:1007080001002000be0f1000ae8f18000200340058
:10071800100020002016880040062000010020005c
:10072800be0f1000ae8f1800020034003000200009
:1007380020168800800c200001002000be0f100049
:10074800ae8f1800020034007000200020168800c8
:10075800c012200001002000be0f1000ae8f18004c
:1007680002003400f0002000201688000019200044
:1007780001002000be0f1000ae8f180002003400e8
:10078800f001200020168800401f200001002000f2
:10079800be0f1000ae8f180002003400f0032000d6
:1007a800201688008025200001002000be0f1000c0
:1007b800ae8f180002003400f007200020168800d1
:1007c800c02b200001002000be0f1000ae8f1800c3
:1007d80002003400f00f200020168800adff07004b
:0407e800c3ff370014
:020000040000fa
:0407ec000000000009
:00000001FF
