:020000040000fa
:080000000002040000000000f2
:020000040000fa
:1000080090020000900200009002000090020000a0
:100018009002000090020000900200009002000090
:100028009002000090020000900200009002000080
:100038009002000090020000900200009002000070
:1000480018040000900200009002000090020000d6
:1000580090020000b6030000900200009002000029
:100068009002000090020000900200009002000040
:100078009002000090020000900200009002000030
:100088009002000090020000900200009002000020
:100098009002000090020000ce030000000400005f
:1000a8009002000090020000900200009002000000
:1000b80090020000900200009002000090020000f0
:1000c80090020000900200009002000090020000e0
:1000d80090020000900200009002000090020000d0
:1000e80090020000900200009002000090020000c0
:1000f80090020000900200009002000090020000b0
:10010800900200009002000090020000900200009f
:10011800900200009002000090020000900200008f
:10012800900200009002000090020000900200007f
:10013800900200009002000090020000900200006f
:10014800900200009002000090020000900200005f
:10015800900200009002000090020000900200004f
:10016800900200009002000090020000900200003f
:10017800900200009002000090020000900200002f
:10018800900200009002000090020000900200001f
:10019800900200009002000090020000900200000f
:1001a80090020000900200009002000090020000ff
:1001b80090020000900200009002000090020000ef
:1001c80090020000900200009002000090020000df
:1001d80090020000900200009002000090020000cf
:1001e80090020000900200009002000090020000bf
:0801f8009002000090020000db
:020000040000fa
:10020800900200009002000090020000900200009e
:10021800900200009002000090020000900200008e
:10022800900200009002000090020000900200007e
:10023800900200009002000090020000900200006e
:1002480018040000900200009002000090020000d4
:1002580090020000b6030000900200009002000027
:10026800900200009002000090020000900200003e
:10027800900200009002000090020000900200002e
:10028800900200009002000090020000900200001e
:100298009002000090020000ce030000000400005d
:1002a80090020000900200009002000090020000fe
:1002b80090020000900200009002000090020000ee
:1002c80090020000900200009002000090020000de
:1002d80090020000900200009002000090020000ce
:1002e80090020000900200009002000090020000be
:1002f80090020000900200009002000090020000ae
:10030800900200009002000090020000900200009d
:10031800900200009002000090020000900200008d
:10032800900200009002000090020000900200007d
:10033800900200009002000090020000900200006d
:10034800900200009002000090020000900200005d
:10035800900200009002000090020000900200004d
:10036800900200009002000090020000900200003d
:10037800900200009002000090020000900200002d
:10038800900200009002000090020000900200001d
:10039800900200009002000090020000900200000d
:1003a80090020000900200009002000090020000fd
:1003b80090020000900200009002000090020000ed
:1003c80090020000900200009002000090020000dd
:1003d80090020000900200009002000090020000cd
:1003e80090020000900200009002000090020000bd
:0803f8009002000090020000d9
:020000040000fa
:100400000f8820000e7f22000e01880000000000ef
:100410000c000700405e20000100200011000700d2
:10042000000020000000e000020032000000020096
:1004300000000000ba020200000000000040da00e4
:100440000000fe004440a900000020000000e00081
:100450000300320000002000a00188004440a800f2
:100460000000060091018800800078000000eb0089
:1004700015003700e280400032a0b4009101ba00bc
:10048000e280400032a0b4009102ba00e280400055
:1004900032a0b4000002eb00472bde00f507b200eb
:1004a000602ce10004003a000059eb008301e900f0
:1004b000fdff3e00040037006128e100010032002a
:1004c0000082eb00040007001101ba000200e00006
:1004d000e8ff3a00000006003159ba008301e90044
:1004e0000c0032002159ba008301e90008003200f3
:1004f0000400e00003003a00e280400032a0b400b3
:10050000f5ff370011d9ba008301e900faff3a007c
:100510008100e800e180400032a0b4000000060045
:080520000040da000000fe00bb
:020000040000fa
:100528000400fa00f0ff2f0001002000008fbe0039
:10053800000000001e0090001e0070008000ea000d
:10054800008070004f00de00004078000081eb0062
:100558008081eb001e0f41005e974900e04f50007c
:10056800f4ff3a000080fa00000006000400fa00d8
:10057800000f7800110798000000eb0000168800b3
:10058800590107007401070086010700b20007003f
:100598000000eb00504088000000eb00604088003d
:1005a8000000eb00004288000000eb0010428800c9
:1005b8009500a80097c0a80087c0a90097e0a800e8
:1005c80095a0a80001003700000000003342a800f1
:1005d800b0438000e10f500016003a0010002000e0
:1005e800201688002043a9000018800000408800d9
:1005f80010188000104088002018800020408800d3
:100608003018800030408800401880004040880042
:100618002043a8000000eb00b04388003040800071
:100628004280de00600c8800304080004280de009e
:10063800900c8800c0438000e10f50000a003a0087
:10064800a08020000c010700e10f400006003200e6
:10065800a0802000e90007000000fb00a01188002e
:100668000000eb00c0438800d0438000e10f500039
:100678000b003a0000842000ff000700e10f500043
:1006880007003200b01180000040780080407800f8
:1006980000842000b30007000000eb00d04388006e
:1006a8003140800020032000808f50000200340079
:1006b80010002000201688003140800040062000ed
:1006c800808f50000200340030002000201688007f
:1006d80031408000800c2000808f500002003400e0
:1006e800700020002016880031408000c0122000d1
:1006f800808f500002003400f0002000201688008f
:100708003140800000192000808f50000200340022
:10071800f00120002016880031408000401f200092
:10072800808f500002003400f0032000201688005b
:100738003140800080252000808f50000200340066
:10074800f00720002016880031408000803e2000fd
:10075800808f50009cff3400f00f20002016880086
:100768009aff3700801f78003400f800000020004e
:10077800a00188000000fa0085a0a9001000200050
:10078800b04388000080fa003400f9004f00780078
:1007980000400600801f78003400f80000002000a8
:1007a800a00188000000fa0087c0a900901180000d
:1007b80068006000e00f500008003a0090118000c7
:1007c80064006000e00f500006003a0010002000ae
:1007d800d04388000000000003003700000000003c
:1007e80001003700000000000080fa003400f90022
:1007f8004f00780000400600801f78003400f800a1
:1008080000002000a00188000000fa0087e0a9008d
:1008180010002000c04388000080fa003400f9006e
:100828004f00780000400600801f78003400f80070
:1008380000002000a00188000000fa008500a9003f
:1008480010002000e04388000080fa003400f9001e
:100858004f007800004006000000fa00c0002000a9
:10086800c01188002000280080118800004028005e
:10087800901188000080fa00000006000400fa00c9
:10088800000f7800110798009e0090000040eb00d0
:1008980080487800130037001e0090000000e9002f
:1008a800100798009e007800a00020000001780042
:1008b800110009008200d8008000fd000040780087
:1008c8000043b0009e009000804878009e007800a9
:1008d800a000200000017800110009008200d80063
:1008e800000f78001e007800e00f5000eaff3a0081
:1008f8001e0090000080fa00000006000400fa00c4
:10090800100798000000eb00000f78000d0037007a
:1009180000000000a080200057000700e10f5000f1
:10092800fcff32001e0078009e009000008040000e
:100938001040780080407800a0802000090007005f
:100948001e0fe8001e0078009e0090000080400006
:1009580010407800e04f5000edff3a000080fa00a8
:10096800000006000400fa00000f780021479800f4
:100978001e007800100090008000e800200320008e
:1009880000017800110009008200d8008000fd00f5
:10099800800078001e00780010007800808f5000da
:1009a80002003a0010002000120037001e007800f4
:1009b800100090009e00780000804000ae4090003b
:1009c800414098001e007800100090008000e80068
:1009d8002003200000017800110009008200d800df
:1009e8008000fd00800078001e007800110098004b
:1009f8000000eb000080fa00000006000400fa0086
:100a08001007980000c0eb00004f78001e0090000f
:100a1800900078001e00900010009000808f500019
:100a280002003a0000c0eb00110037001e009000e1
:100a3800100078009e00900064004000614f78002c
:100a48001e009000100078008000e80020032000bd
:100a580000017800110009008200d8008000fd0024
:100a6800800078001e009000010878001e40780081
:100a78000080fa00000006000200fa00000f78006b
:100a88001e007800900078001e007800100090008a
:100a9800808f500002003a000080eb001000370001
:100aa8001e007800100090008000e800200320005d
:100ab80000017800110009008200d8008000fd00c4
:100ac800800078001e00780010007800808f5000a9
:100ad80002003a0010002000010037000000eb007f
:100ae8000080fa00000006000000fa0030dc2f0049
:100af800601988000000eb0040198800600e28008b
:100b0800001988004041200010198800f0ff2100da
:100b180020198800c0232000801988000080fa006e
:100b2800000006000600fa00404798000000000098
:100b38000019800061006000e00f5000fcff3200e7
:100b48000018800001002000008fbe001e00be00bb
:100b58000080fa00000006000000fa00f00f2000f4
:100b6800600888000000eb00600c88000000eb00c3
:100b7800700c88000000eb00900c88000000eb006f
:100b8800a00c880060002200800c88006000220011
:100b9800b00c880000032800800888000080fa0054
:100ba800000006000000fa00d0b825007008880090
:100bb80000032800900888000080fa000000060062
:020000040000fa
:100bc800760800000a000000020000000000010092
:100bd8000000000000000000000000000008000005
:0c0be8007600000000000000000000008b
:020000040000fa
:020000040002f8
:04aff800bdfa00009e
:020000040000fa
:020000040002f8
:04affc007f3f000093
:00000001FF
