:020000040000fa
:080000000002040000000000f2
:020000040000fa
:1000080090020000900200009002000090020000a0
:100018009002000090020000900200009002000090
:1000280090020000cc040000900200009002000042
:1000380090020000060500009002000090020000f7
:100048009002000090020000900200009002000060
:10005800900200005204000090020000900200008c
:100068009002000090020000900200009002000040
:100078009002000090020000900200009002000030
:10008800900200009002000090020000b4040000fa
:1000980090020000900200006a0400009c04000026
:1000a8009002000090020000900200009002000000
:1000b800900200003a0500006e0500009002000062
:1000c80090020000900200009002000090020000e0
:1000d80090020000900200009002000090020000d0
:1000e80090020000900200009002000090020000c0
:1000f80090020000900200009002000090020000b0
:10010800900200009002000090020000900200009f
:10011800900200009002000090020000900200008f
:10012800900200009002000090020000900200007f
:10013800900200009002000090020000900200006f
:10014800900200009002000090020000900200005f
:10015800900200009002000090020000900200004f
:10016800900200009002000090020000900200003f
:10017800900200009002000090020000900200002f
:10018800900200009002000090020000900200001f
:10019800900200009002000090020000900200000f
:1001a80090020000900200009002000090020000ff
:1001b80090020000900200009002000090020000ef
:1001c80090020000900200009002000090020000df
:1001d80090020000900200009002000090020000cf
:1001e80090020000900200009002000090020000bf
:0801f8009002000090020000db
:020000040000fa
:10020800900200009002000090020000900200009e
:10021800900200009002000090020000900200008e
:1002280090020000cc040000900200009002000040
:1002380090020000060500009002000090020000f5
:10024800900200009002000090020000900200005e
:10025800900200005204000090020000900200008a
:10026800900200009002000090020000900200003e
:10027800900200009002000090020000900200002e
:10028800900200009002000090020000b4040000f8
:1002980090020000900200006a0400009c04000024
:1002a80090020000900200009002000090020000fe
:1002b800900200003a0500006e0500009002000060
:1002c80090020000900200009002000090020000de
:1002d80090020000900200009002000090020000ce
:1002e80090020000900200009002000090020000be
:1002f80090020000900200009002000090020000ae
:10030800900200009002000090020000900200009d
:10031800900200009002000090020000900200008d
:10032800900200009002000090020000900200007d
:10033800900200009002000090020000900200006d
:10034800900200009002000090020000900200005d
:10035800900200009002000090020000900200004d
:10036800900200009002000090020000900200003d
:10037800900200009002000090020000900200002d
:10038800900200009002000090020000900200001d
:10039800900200009002000090020000900200000d
:1003a80090020000900200009002000090020000fd
:1003b80090020000900200009002000090020000ed
:1003c80090020000900200009002000090020000dd
:1003d80090020000900200009002000090020000cd
:1003e80090020000900200009002000090020000bd
:0803f8009002000090020000d9
:020000040000fa
:10040000cf9020000e7f22000e0188000000000027
:100410000c000700608f2000010020001100070081
:10042000000020000000e000020032000000020096
:100430000000000098020200000000000040da0006
:100440000000fe004440a900400020000000e00041
:100450000300320000002000a00188004440a800f2
:100460000000060091018800800078000000eb0089
:1004700015003700e280400032a0b4009101ba00bc
:10048000e280400032a0b4009102ba00e280400055
:1004900032a0b4000002eb00472bde00f507b200eb
:1004a000602ce10004003a000059eb008301e900f0
:1004b000fdff3e00040037006128e100010032002a
:1004c0000082eb00040007001101ba000200e00006
:1004d000e8ff3a00000006003159ba008301e90044
:1004e0000c0032002159ba008301e90008003200f3
:1004f0000400e00003003a00e280400032a0b400b3
:10050000f5ff370011d9ba008301e900faff3a007c
:100510008100e800e180400032a0b4000000060045
:080520000040da000000fe00bb
:020000040000fa
:080528000a0d000000000000b4
:020000040000fa
:100530000800fa00200798003107980000c2b300b5
:10054000004f780000c0eb001047980000c0eb009f
:10055000204798000000eb00001688000000eb0028
:10056000c016880005030700be020700d00207007e
:1005700074010700d50207000000eb00504088001e
:100580000000eb00604088000000eb0000428800a3
:100590000000eb00104288009500a80097c0a8005a
:1005a00087c0a90097e0a80095a0a8009420a80003
:1005b00094a0a80098a0a80098c0a8000100370047
:1005c000000000003342a80002c9bf00e14f500004
:1005d00016003a0010002000201688002043a900d1
:1005e000001880000040880010188000104088002b
:1005f000201880002040880030188000304088009b
:1006000040188000404088002043a8000040eb00d4
:1006100002e9b700304080004280de00600c8800b4
:10062000304080004280de00900c880005c9bf0089
:10063000e14f500007003a00208e200010007800a3
:100640004901070040292800690107000040eb002c
:1006500005e9b70003c9bf00e14f50000a003a00a6
:10066000a0802000c1010700e10f40000600320019
:10067000a08020009e0107000000fb00a011880060
:100680000040eb0003e9b70004c9bf00e14f500090
:100690000e003a0000842000b4010700e10f500072
:1006a0000a003200b011800030479800be40900030
:1006b00000842000680107000040eb0004e9b70057
:1006c000be409000a08020006301070007c9bf0062
:1006d000e14f50000b003a0060872000a3010700a3
:1006e000e10f500007003200460207003047980033
:1006f000be40900060872000570107000040eb00db
:1007000007e9b70006c9bf00e14f500009003a00f1
:10071000c08a200095010700e10f4000050032006b
:10072000c08a200072010700f40107000040eb00be
:1007300006e9b700008420008c010700e10f4000ab
:10074000030032000084200069010700004f780098
:100750001e00fb0041042000810f500019003200f0
:1007600041042000810f500007003c0001022000de
:10077000810f50001600320011042000810f50003c
:100780000d0032001600370031052000810f5000a7
:100790000600320071052000810f50000f003a0062
:1007a00040012000e01688000d003700a000200066
:1007b000e01688000a00370020012000e0168800bb
:1007c00007003700c0002000e01688000400370052
:1007d0000000eb00e0168800010037000000000078
:1007e0003140800020032000808f50000200340040
:1007f00010002000201688003140800040062000b4
:10080000808f500002003400300020002016880045
:1008100031408000800c2000808f500002003400a6
:10082000700020002016880031408000c012200097
:10083000808f500002003400f00020002016880055
:100840003140800000192000808f500002003400e9
:10085000f00120002016880031408000401f200059
:10086000808f500002003400f00320002016880022
:100870003140800080252000808f5000020034002d
:10088000f00720002016880031408000803e2000c4
:10089000808f50004aff3400f00f2000201688009f
:1008a00048ff3700801f78003400f8000000200067
:1008b000a00188000000fa0085a0a90010c0b300c4
:1008c00002e9b7000080fa003400f9004f00780018
:1008d00000400600801f78003400f800000020006f
:1008e000a00188000000fa0087c0a90090118000d4
:1008f00068006000e00f500008003a00901180008e
:1009000064006000e00f500006003a0010c0b30021
:1009100004e9b700000000000300370000000000f9
:1009200001003700000000000080fa003400f900e8
:100930004f00780000400600801f78003400f80067
:1009400000002000a00188000000fa0087e0a90054
:1009500010c0b30003e9b7000080fa003400f900ca
:100960004f00780000400600801f78003400f80037
:1009700000002000a00188000000fa008760a900a4
:1009800010c0b30005e9b7000080fa003400f90098
:100990004f00780000400600809fbe003400f80041
:1009a00000002000a00188000000fa008420a900b7
:1009b000000a800080007800208e20000108780066
:1009c000000a800080007800208e2000110098002e
:1009d000000a800080007800208e2000210098000e
:1009e000000a800080007800208e200031009800ee
:1009f0005048800064004000504888000080fa00a1
:100a00003400f9004f00be0000400600809fbe0089
:100a10003400f80000002000a00188000000fa0067
:100a200084a0a900200a800080007800a08e200009
:100a300001087800200a800080007800a08e200045
:100a400011009800200a800080007800a08e20000d
:100a500021009800200a800080007800a08e2000ed
:100a6000310098000080fa003400f9004f00be0009
:100a700000400600809fbe003400f8000000200007
:100a8000a00188000000fa0088a0a900400a8000a8
:100a900080007800208f200001087800400a800044
:100aa00080007800208f200011009800400a80000c
:100ab00080007800208f200021009800400a8000ec
:100ac00080007800208f2000310098000080fa001c
:100ad0003400f9004f00be0000400600809fbe00b9
:100ae0003400f80000002000a00188000000fa0097
:100af00088c0a900600a800080007800a08f2000d4
:100b000001087800600a800080007800a08f200033
:100b100011009800600a800080007800a08f2000fb
:100b200021009800600a800080007800a08f2000db
:100b3000310098000080fa003400f9004f00be0038
:100b4000004006000000fa00c0002000c01188002c
:100b500020002800801188000040280090118800a3
:100b60000080fa00000006004400fa0010279800f8
:100b70000040eb0010c79800f0032000000f780041
:100b8000120037001e0fe9009e209000a0002000f8
:100b900000017800110009008200d8008000fd00eb
:100ba000004078000043b0008e80e8009e80400046
:100bb000804878009e209000a0002000000178006e
:100bc000110009008200d800102798001e20900014
:100bd000e00f5000ebff3a001e0078008e80e80026
:100be00000804000020007000080fa0000000600bc
:100bf0000400fa00100798000000eb00000f7800d6
:100c00000d00370000000000a08020005700070002
:100c1000e10f5000fcff32001e0078009e009000a3
:100c2000008040001040780080407800a0802000c4
:100c3000090007001e0fe8001e0078009e009000cb
:100c40000080400010407800e04f5000edff3a0077
:100c50000080fa00000006000400fa00000f78008f
:100c6000214798001e007800100090008000e800e6
:100c70002003200000017800110009008200d80044
:100c80008000fd00800078001e00780010007800d1
:100c9000808f500002003a00100020001200370040
:100ca0001e007800100090009e0078000080400038
:100cb000ae409000414098001e0078001000900067
:100cc0008000e800200320000001780011000900e6
:100cd0008200d8008000fd00800078001e007800af
:100ce000110098000000eb000080fa0000000600f0
:100cf0000400fa001007980000c0eb00004f7800d5
:100d00001e009000900078001e00900010009000df
:100d1000808f500002003a0000c0eb001100370045
:100d20001e009000100078009e00900064004000bb
:100d3000614f78001e009000100078008000e800ed
:100d40002003200000017800110009008200d80073
:100d50008000fd00800078001e00900001087800ef
:100d60001e4078000080fa00000006000200fa0031
:100d7000000f78001e007800900078001e007800b8
:100d800010009000808f500002003a000080eb00bd
:100d9000100037001e007800100090008000e8006e
:100da0002003200000017800110009008200d80013
:100db0008000fd00800078001e00780010007800a0
:100dc000808f500002003a00100020000100370020
:100dd0000000eb000080fa00000006000400fa00aa
:100de00040062000000f78001e00780020108800c8
:100df00007e2a9000722a8008620a90007e2a800b0
:100e00000010800010079800270007000080fa00fb
:100e1000000006000200fa000000eb00000f78005e
:100e200006a2a9000602a800000000000400370086
:100e30001e0fe8001e007800f40f500005003c0073
:100e40003010800061006000e00f5000f8ff3a00b1
:100e500001003700000000000080fa0000000600da
:100e60000200fa000000eb00000f78000622a80044
:100e700000000000040037001e0fe8001e0078008c
:100e8000f40f500005003c0030108000620060004c
:100e9000e00f5000f8ff3a000100370000000000aa
:100ea0000080fa00000006000200fa000000eb00db
:100eb000000f78000642a800040037001e0fe8006b
:100ec0001e007800f40f500005003c003010800038
:100ed00064006000e00f5000f8ff3a0001003700a6
:100ee000000000000662a9008620a90008e2a9000f
:100ef0000942a9000080fa00000006000400fa0080
:100f00002047980000000000401080006100600051
:100f1000e00f5000fcff3a008620a9002e40900010
:100f20000000fb00101088000000eb00000f7800ac
:100f3000060037004110800000002400008060009f
:100f4000e00f5000060032001e0fe800301f2000a6
:100f50009e007800808f5000f6ff340001003700bb
:100f600000000000401f20009e007800808f50008d
:100f700002003a0010c0b3000900370041108000a1
:100f80000000280000806000e00f500003003200e5
:100f9000c5ff070010c0b300010037000040eb00a0
:100fa0000080fa00000006000400fa000000eb00d8
:100fb000000f78000040eb00204798000662a80070
:100fc000050037001e0fe800007d20009e0078001d
:100fd000808f500005003c004010800062006000df
:100fe000e00f5000f7ff3200010037000000000062
:100ff00000108000204798002e4090000080fa00ea
:10100000000006000400fa000000eb00000f78006a
:101010000040eb00204798000662a800050037005a
:101020001e0fe800007d20009e007800808f500099
:1010300005003c004010800062006000e00f50009e
:10104000f7ff3200010037000000000000108000b0
:10105000204798000682a8002e4090000080fa00e9
:10106000000006000000fa00f00f20006008880071
:101070000000eb00600c88000000eb00700c8800a2
:101080000000eb00900c88000000eb00a00c880032
:1010900060002200800c880060002200b00c8800f4
:1010a00000032800800888000080fa000000060085
:1010b0000000fa00d0b82500d008880000032800fe
:1010c000f00888000080fa00000006000000fa0026
:1010d00013e1a80042e1a900110a800000062000e7
:1010e00000807000100a8800110a800080ff2f0025
:1010f000008060003000b300100a880046e1a900bb
:10110000310a80000006200000807000300a88004c
:10111000310a800080ff2f00008060003000b300a3
:10112000300a88004ae1a900510a80000006200028
:1011300000807000500a8800510a800080ff2f0054
:10114000008060003000b300500a88004ee1a90022
:10115000710a80000006200000807000700a88007c
:10116000710a800080ff2f00008060003000b30013
:10117000700a88000080fa00000006000000fa00f3
:1011800030dc2f00601988000000eb004019880057
:10119000600e2800001988004041200010198800c6
:1011a000f0ff210020198800c0232000801988004a
:1011b0000080fa00000006000600fa004047980090
:1011c000000000000019800061006000e00f500086
:1011d000fcff32000018800001002000008fbe00dc
:0c11e0001e00be000080fa0000000600a7
:020000040000fa
:1011ec00020900000a0000000200000000010000db
:1011fc0000000000000000000000000000080000db
:0c120c00020100000000000000000000d3
:020000040000fa
:020000040002f8
:04aff800bdfa00009e
:020000040000fa
:020000040002f8
:04affc007f3f000093
:00000001FF
